{
  "_format": "hh-sol-artifact-1",
  "contractName": "CRUD",
  "sourceName": "contracts/Crud.sol",
  "abi": [
    {
      "inputs": [],
      "stateMutability": "nonpayable",
      "type": "constructor"
    },
    {
      "inputs": [
        {
          "internalType": "string",
          "name": "name",
          "type": "string"
        },
        {
          "internalType": "string",
          "name": "email",
          "type": "string"
        },
        {
          "internalType": "uint256",
          "name": "age",
          "type": "uint256"
        },
        {
          "internalType": "address",
          "name": "walletAddress",
          "type": "address"
        }
      ],
      "name": "create",
      "outputs": [
        {
          "internalType": "uint256",
          "name": "_totalEmployee",
          "type": "uint256"
        }
      ],
      "stateMutability": "nonpayable",
      "type": "function"
    },
    {
      "inputs": [
        {
          "internalType": "string",
          "name": "email",
          "type": "string"
        }
      ],
      "name": "deleteEmployee",
      "outputs": [
        {
          "internalType": "bool",
          "name": "",
          "type": "bool"
        }
      ],
      "stateMutability": "nonpayable",
      "type": "function"
    },
    {
      "inputs": [
        {
          "internalType": "uint256",
          "name": "",
          "type": "uint256"
        }
      ],
      "name": "employees",
      "outputs": [
        {
          "internalType": "string",
          "name": "name",
          "type": "string"
        },
        {
          "internalType": "string",
          "name": "email",
          "type": "string"
        },
        {
          "internalType": "uint256",
          "name": "age",
          "type": "uint256"
        },
        {
          "internalType": "address",
          "name": "walletAddress",
          "type": "address"
        }
      ],
      "stateMutability": "view",
      "type": "function"
    },
    {
      "inputs": [],
      "name": "totalEmployees",
      "outputs": [
        {
          "internalType": "uint256",
          "name": "",
          "type": "uint256"
        }
      ],
      "stateMutability": "view",
      "type": "function"
    },
    {
      "inputs": [
        {
          "internalType": "string",
          "name": "name",
          "type": "string"
        },
        {
          "internalType": "string",
          "name": "email",
          "type": "string"
        }
      ],
      "name": "updateEmployee",
      "outputs": [
        {
          "internalType": "bool",
          "name": "",
          "type": "bool"
        }
      ],
      "stateMutability": "nonpayable",
      "type": "function"
    }
  ],
  "bytecode": "0x608060405234801561001057600080fd5b50600060018190555061107e806100286000396000f3fe608060405234801561001057600080fd5b50600436106100575760003560e01c8063062278381461005c57806315f680e11461008c5780634692ed67146100bc5780634739326b146100ec57806352b9b9731461011f575b600080fd5b61007660048036038101906100719190610acb565b61013d565b6040516100839190610ce2565b60405180910390f35b6100a660048036038101906100a19190610b0c565b610462565b6040516100b39190610ce2565b60405180910390f35b6100d660048036038101906100d19190610b78565b6105df565b6040516100e39190610d50565b60405180910390f35b61010660048036038101906101019190610c0b565b6106fa565b6040516101169493929190610cfd565b60405180910390f35b61012761086a565b6040516101349190610d50565b60405180910390f35b600080600090505b6001548110156104575761022c6000828154811061018c577f4e487b7100000000000000000000000000000000000000000000000000000000600052603260045260246000fd5b906000526020600020906004020160010180546101a890610ed0565b80601f01602080910402602001604051908101604052809291908181526020018280546101d490610ed0565b80156102215780601f106101f657610100808354040283529160200191610221565b820191906000526020600020905b81548152906001019060200180831161020457829003601f168201915b505050505084610870565b15610444576000600180546102419190610de8565b81548110610278577f4e487b7100000000000000000000000000000000000000000000000000000000600052603260045260246000fd5b9060005260206000209060040201600082815481106102c0577f4e487b7100000000000000000000000000000000000000000000000000000000600052603260045260246000fd5b906000526020600020906004020160008201816000019080546102e290610ed0565b6102ed9291906108c9565b50600182018160010190805461030290610ed0565b61030d9291906108c9565b50600282015481600201556003820160009054906101000a900473ffffffffffffffffffffffffffffffffffffffff168160030160006101000a81548173ffffffffffffffffffffffffffffffffffffffff021916908373ffffffffffffffffffffffffffffffffffffffff16021790555090505060008054806103ba577f4e487b7100000000000000000000000000000000000000000000000000000000600052603160045260246000fd5b6001900381819060005260206000209060040201600080820160006103df9190610956565b6001820160006103ef9190610956565b60028201600090556003820160006101000a81549073ffffffffffffffffffffffffffffffffffffffff0219169055505090556001600081548092919061043590610ea6565b9190505550600191505061045d565b808061044f90610f33565b915050610145565b50600090505b919050565b600080600090505b6001548110156105d357610551600082815481106104b1577f4e487b7100000000000000000000000000000000000000000000000000000000600052603260045260246000fd5b906000526020600020906004020160010180546104cd90610ed0565b80601f01602080910402602001604051908101604052809291908181526020018280546104f990610ed0565b80156105465780601f1061051b57610100808354040283529160200191610546565b820191906000526020600020905b81548152906001019060200180831161052957829003601f168201915b505050505084610870565b156105c0578360008281548110610591577f4e487b7100000000000000000000000000000000000000000000000000000000600052603260045260246000fd5b906000526020600020906004020160000190805190602001906105b5929190610996565b5060019150506105d9565b80806105cb90610f33565b91505061046a565b50600090505b92915050565b60008060405180608001604052808781526020018681526020018581526020018473ffffffffffffffffffffffffffffffffffffffff16815250905060008190806001815401808255809150506001900390600052602060002090600402016000909190919091506000820151816000019080519060200190610663929190610996565b506020820151816001019080519060200190610680929190610996565b506040820151816002015560608201518160030160006101000a81548173ffffffffffffffffffffffffffffffffffffffff021916908373ffffffffffffffffffffffffffffffffffffffff1602179055505050600160008154809291906106e790610f33565b9190505550600154915050949350505050565b6000818154811061070a57600080fd5b906000526020600020906004020160009150905080600001805461072d90610ed0565b80601f016020809104026020016040519081016040528092919081815260200182805461075990610ed0565b80156107a65780601f1061077b576101008083540402835291602001916107a6565b820191906000526020600020905b81548152906001019060200180831161078957829003601f168201915b5050505050908060010180546107bb90610ed0565b80601f01602080910402602001604051908101604052809291908181526020018280546107e790610ed0565b80156108345780601f1061080957610100808354040283529160200191610834565b820191906000526020600020905b81548152906001019060200180831161081757829003601f168201915b5050505050908060020154908060030160009054906101000a900473ffffffffffffffffffffffffffffffffffffffff16905084565b60015481565b6000816040516020016108839190610ccb565b60405160208183030381529060405280519060200120836040516020016108aa9190610ccb565b6040516020818303038152906040528051906020012014905092915050565b8280546108d590610ed0565b90600052602060002090601f0160209004810192826108f75760008555610945565b82601f106109085780548555610945565b8280016001018555821561094557600052602060002091601f016020900482015b82811115610944578254825591600101919060010190610929565b5b5090506109529190610a1c565b5090565b50805461096290610ed0565b6000825580601f106109745750610993565b601f0160209004906000526020600020908101906109929190610a1c565b5b50565b8280546109a290610ed0565b90600052602060002090601f0160209004810192826109c45760008555610a0b565b82601f106109dd57805160ff1916838001178555610a0b565b82800160010185558215610a0b579182015b82811115610a0a5782518255916020019190600101906109ef565b5b509050610a189190610a1c565b5090565b5b80821115610a35576000816000905550600101610a1d565b5090565b6000610a4c610a4784610d90565b610d6b565b905082815260208101848484011115610a6457600080fd5b610a6f848285610e64565b509392505050565b600081359050610a868161101a565b92915050565b600082601f830112610a9d57600080fd5b8135610aad848260208601610a39565b91505092915050565b600081359050610ac581611031565b92915050565b600060208284031215610add57600080fd5b600082013567ffffffffffffffff811115610af757600080fd5b610b0384828501610a8c565b91505092915050565b60008060408385031215610b1f57600080fd5b600083013567ffffffffffffffff811115610b3957600080fd5b610b4585828601610a8c565b925050602083013567ffffffffffffffff811115610b6257600080fd5b610b6e85828601610a8c565b9150509250929050565b60008060008060808587031215610b8e57600080fd5b600085013567ffffffffffffffff811115610ba857600080fd5b610bb487828801610a8c565b945050602085013567ffffffffffffffff811115610bd157600080fd5b610bdd87828801610a8c565b9350506040610bee87828801610ab6565b9250506060610bff87828801610a77565b91505092959194509250565b600060208284031215610c1d57600080fd5b6000610c2b84828501610ab6565b91505092915050565b610c3d81610e1c565b82525050565b610c4c81610e2e565b82525050565b6000610c5d82610dc1565b610c678185610dcc565b9350610c77818560208601610e73565b610c8081611009565b840191505092915050565b6000610c9682610dc1565b610ca08185610ddd565b9350610cb0818560208601610e73565b80840191505092915050565b610cc581610e5a565b82525050565b6000610cd78284610c8b565b915081905092915050565b6000602082019050610cf76000830184610c43565b92915050565b60006080820190508181036000830152610d178187610c52565b90508181036020830152610d2b8186610c52565b9050610d3a6040830185610cbc565b610d476060830184610c34565b95945050505050565b6000602082019050610d656000830184610cbc565b92915050565b6000610d75610d86565b9050610d818282610f02565b919050565b6000604051905090565b600067ffffffffffffffff821115610dab57610daa610fda565b5b610db482611009565b9050602081019050919050565b600081519050919050565b600082825260208201905092915050565b600081905092915050565b6000610df382610e5a565b9150610dfe83610e5a565b925082821015610e1157610e10610f7c565b5b828203905092915050565b6000610e2782610e3a565b9050919050565b60008115159050919050565b600073ffffffffffffffffffffffffffffffffffffffff82169050919050565b6000819050919050565b82818337600083830152505050565b60005b83811015610e91578082015181840152602081019050610e76565b83811115610ea0576000848401525b50505050565b6000610eb182610e5a565b91506000821415610ec557610ec4610f7c565b5b600182039050919050565b60006002820490506001821680610ee857607f821691505b60208210811415610efc57610efb610fab565b5b50919050565b610f0b82611009565b810181811067ffffffffffffffff82111715610f2a57610f29610fda565b5b80604052505050565b6000610f3e82610e5a565b91507fffffffffffffffffffffffffffffffffffffffffffffffffffffffffffffffff821415610f7157610f70610f7c565b5b600182019050919050565b7f4e487b7100000000000000000000000000000000000000000000000000000000600052601160045260246000fd5b7f4e487b7100000000000000000000000000000000000000000000000000000000600052602260045260246000fd5b7f4e487b7100000000000000000000000000000000000000000000000000000000600052604160045260246000fd5b6000601f19601f8301169050919050565b61102381610e1c565b811461102e57600080fd5b50565b61103a81610e5a565b811461104557600080fd5b5056fea26469706673582212205d505e29c96e4d48787016ba497d2a51fd3e5a861af2766cfa8a976c97a9b1dc64736f6c63430008040033",
  "linkReferences": {},
  "deployedLinkReferences": {}
}